:040000000DEF00F010
:04000800EBEF22F008
:06001800FF00E9EF30F0EB
:1026000000B65F000000004E6B009A6700000000FB
:10261000E26E00000000AC7000000000000000004E
:1026200000000000000000000000000000000000AA
:1026300000000000000000866D00000000F26D0048
:10264000CE6D00000000000000E6660000000040C3
:102650006700000000F26700000000000000BA6B95
:1026600000000000000000BC2600226300526567E5
:1026700069737465722053656E736F722E2E2E2EE1
:102680002E2E0A204E616D653A2025737C20494428
:102690003A2025647C2050696E3A20414E25640A18
:1026A0000053656E4C4D33355F30002532642E2566
:0B26B000640A00286E756C6C290000A5
:1026BC00EDC677F5EEC678F5EFC679F5F0C67AF586
:1026CC00000E05017B6F000E7C6F800E7D6F3F0E40
:1026DC007E6F00EC2CF00501D8B077EF13F079EF9A
:1026EC0013F082EF13F0000E0601ED6F000EEE6F8B
:1026FC00800EEF6F3F0EF06F000E0501776FC00E6E
:10270C00786FBE0E796F440E7A6FEDC67BF5EEC610
:10271C007CF5EFC67DF5F0C67EF500EC2CF00501DE
:10272C00D8B09BEF13F09DEF13F0A6EF13F0000E53
:10273C000601ED6FC00EEE6FBE0EEF6F440EF06F24
:10274C00000E0501896F000E8A6F800E8B6F450E8F
:10275C008C6FEDC685F5EEC686F5EFC687F5F0C62F
:10276C0088F590EC1AF085C5A2F586C5A3F587C54A
:10277C00A4F588C5A5F5200E05019E6FBC0E9F6FB4
:10278C00BE0EA06F4B0EA16FB7EC1EF09EC5B7F539
:10279C009FC5B8F5A0C5B9F5A1C5BAF5000E0501E0
:1027AC00BB6F000EBC6F800EBD6FBF0EBE6F34ECE6
:1027BC0018F0B7C5F4F6B8C5F5F6B9C5F6F6BAC54E
:1027CC00F7F6F4C677F5F5C678F5F6C679F5F7C6DB
:1027DC007AF5000E05017B6F000E7C6F400E7D6F4D
:1027EC00400E7E6F00EC2CF00501D8B000EF14F019
:1027FC0002EF14F00BEF14F0000E0601F46F000E54
:10280C00F56F400EF66F400EF76F000E0501776FF7
:10281C00000E786F7F0E796F430E7A6FF4C67BF5DE
:10282C00F5C67CF5F6C67DF5F7C67EF500EC2CF00A
:10283C000501D8B024EF14F026EF14F02FEF14F0AC
:10284C00000E0601F46F000EF56F7F0EF66F430E4F
:10285C00F76FF4C6C7F5F5C6C8F5F6C6C9F5F7C6E1
:10286C00CAF571EC2BF00501C7510601F26FFB6B39
:10287C00000E0501796F400E786FFB0E7A6F060E15
:10288C007B6F000E7D6F010E7C6FF80E7E6F060E57
:10289C007F6F000E816F010E806F550EF66E260E47
:1028AC00F76E000EF86E02D869EF14F00500FA6EA0
:1028BC000900F550FD6E0900F550FE6E0900F5504B
:1028CC00FF6EFA5012005E0EF66E260EF76E000EBC
:1028DC00F86E02D87FEF14F00500FA6E0900F5507F
:1028EC00FD6E0900F550FE6E0900F550FF6EFA50B2
:1028FC0012000009D8A485EF14F087EF14F069EFEB
:10290C0014F00601F8517F0B1009F36FFBC6F9F6B2
:10291C00F3C6FAF6680E0601F16FE40EE82EFED748
:10292C00F12FFCD70000000E0501796F400E786F77
:10293C00F90E7A6F060E7B6F000E7D6F020E7C6FA8
:10294C004F0EF66E260EF76E000EF86E02D8BCEF28
:10295C0014F00500FA6E0900F550FD6E0900F550F3
:10296C00FE6E0900F550FF6EFA5012005E0EF66E08
:10297C00260EF76E000EF86E02D8D2EF14F005009A
:10298C00FA6E0900F550FD6E0900F550FE6E090057
:10299C00F550FF6EFA5012000009D8A4D8EF14F0CD
:1029AC00DAEF14F0BCEF14F0D00E0601F16FC90E83
:1029BC00E82EFED7F12FFCD700D0FE0E0601FB6FE0
:1029CC00FBC6F9F6F2C6FAF6000E0501796F400E59
:1029DC00786FF90E7A6F060E7B6F000E7D6F020E0C
:1029EC007C6F4F0EF66E260EF76E000EF86E02D848
:1029FC000DEF15F00500FA6E0900F550FD6E09009B
:102A0C00F550FE6E0900F550FF6EFA5012005E0E86
:102A1C00F66E260EF76E000EF86E02D823EF15F048
:102A2C000500FA6E0900F550FD6E0900F550FE6EBA
:102A3C000900F550FF6EFA5012000009D8A429EFD6
:102A4C0015F02BEF15F00DEF15F0D00E0601F16F10
:102A5C00C90EE82EFED7F12FFCD700D00601FB6B78
:102A6C00FBC6F9F6F851EF0BFA6F000E0501796F02
:102A7C00400E786FF90E7A6F060E7B6F000E7D6F2D
:102A8C00020E7C6F4F0EF66E260EF76E000EF86E71
:102A9C0002D85EEF15F00500FA6E0900F550FD6ED8
:102AAC000900F550FE6E0900F550FF6EFA50120049
:102ABC005E0EF66E260EF76E000EF86E02D874EFF0
:102ACC0015F00500FA6E0900F550FD6E0900F55081
:102ADC00FE6E0900F550FF6EFA5012000009D8A4E2
:102AEC007AEF15F07CEF15F05EEF15F0D00E0601C5
:102AFC00F16FC90EE82EFED7F12FFCD700D0FBC624
:102B0C00F9F60601F851EF0BA009FA6F000E05015A
:102B1C00796F400E786FF90E7A6F060E7B6F000E90
:102B2C007D6F020E7C6F4F0EF66E260EF76E000E4A
:102B3C00F86E02D8AFEF15F00500FA6E0900F550EB
:102B4C00FD6E0900F550FE6E0900F550FF6EFA504F
:102B5C0012005E0EF66E260EF76E000EF86E02D8A0
:102B6C00C5EF15F00500FA6E0900F550FD6E090071
:102B7C00F550FE6E0900F550FF6EFA501200000978
:102B8C00D8A4CBEF15F0CDEF15F0AFEF15F0120088
:102B9C002BEC37F0D68E56EC38F059EC38F05CEC68
:102BAC0038F065EC37F0000E0501776F000E786F8A
:102BBC00000E796F9FEC36F0000E0601ED6F000EE3
:102BCC00EE6F240EEF6F420EF06F670EF66E260E50
:102BDC00F76E000EF86E02D801EF16F00500FA6ED3
:102BEC000900F550FD6E0900F550FE6E0900F55018
:102BFC00FF6EFA50120042EC27F072EC26F077ECE4
:102C0C002DF0840E0501776F660E786F000E796FCC
:102C1C0011EC38F00AEC38F05FEC38F0C898C89A30
:102C2C00C088C08A1AEF18F0E0C5EDF6E1C5EEF6E3
:102C3C0042C6EFF643C6F0F6050120EE08F0E0516F
:102C4C00D926E151DA2202D836EF16F00500FA6ED9
:102C5C00DE50FD6EDE50FE6EDE50FF6EFA5012003E
:102C6C000601996B0A0EF66E260EF76E000EF86EC4
:102C7C0002D84FEF16F00500FA6E0900F550FD6E04
:102C8C000900F550FE6E0900F550FF6EFA50310E3A
:102C9C0012001AEF18F0DEC5EDF6DFC5EEF642C6EF
:102CAC00EFF643C6F0F6050120EE08F0DE51D9260A
:102CBC00DF51DA2202D86DEF16F00500FA6EDE5005
:102CCC00FD6EDE50FE6EDE50FF6EFA5012000601F5
:102CDC00996B0A0EF66E260EF76E000EF86E02D881
:102CEC0086EF16F00500FA6E0900F550FD6E09002E
:102CFC00F550FE6E0900F550FF6EFA50310E1200C1
:102D0C001AEF18F0DCC5EDF6DDC5EEF642C6EFF6AF
:102D1C0043C6F0F6050120EE08F0DC51D926DD5152
:102D2C00DA2202D8A4EF16F00500FA6EDE50FD6E22
:102D3C00DE50FE6EDE50FF6EFA5012000601996BEB
:102D4C000A0EF66E260EF76E000EF86E02D8BDEF68
:102D5C0016F00500FA6E0900F550FD6E0900F550ED
:102D6C00FE6E0900F550FF6EFA50310E12001AEF8C
:102D7C0018F04151020AD8B488EF16F0010AD8B401
:102D8C001AEF16F0070AD8B451EF16F01AEF18F034
:102D9C008FC6EDF690C6EEF64CC6EFF620EE08F0B8
:102DAC008F51D9269051DA2202D8E7EF16F00500A0
:102DBC00FA6EDE50FD6EDE50FE6EDE50FF6EFA5087
:102DCC0012000601996B0A0EF66E260EF76E000EB7
:102DDC00F86E02D800EF17F00500FA6E0900F550F6
:102DEC00FD6E0900F550FE6E0900F550FF6EFA50AD
:102DFC00310E12001AEF18F08DC6EDF68EC6EEF6F7
:102E0C004CC6EFF620EE08F08D51D9268E51DA2201
:102E1C0002D81BEF17F00500FA6EDE50FD6EDE5087
:102E2C00FE6EDE50FF6EFA5012000601996B0A0E10
:102E3C00F66E260EF76E000EF86E02D834EF17F011
:102E4C000500FA6E0900F550FD6E0900F550FE6E96
:102E5C000900F550FF6EFA50310E12001AEF18F0FF
:102E6C008BC6EDF68CC6EEF64CC6EFF620EE08F0EF
:102E7C008B51D9268C51DA2202D84FEF17F005006E
:102E8C00FA6EDE50FD6EDE50FE6EDE50FF6EFA50B6
:102E9C0012000601996B0A0EF66E260EF76E000EE6
:102EAC00F86E02D868EF17F00500FA6E0900F550BD
:102EBC00FD6E0900F550FE6E0900F550FF6EFA50DC
:102ECC00310E12001AEF18F04B51000AD8B4CEEFA5
:102EDC0016F0010AD8B402EF17F0030AD8B436EF93
:102EEC0017F01AEF18F04F51FF0AFC6FFC3BC05063
:102EFC00FC19EF0BFC19C06E996B0A0EF66E260EC0
:102F0C00F76E000EF86E02D89AEF17F00500FA6E05
:102F1C000900F550FD6E0900F550FE6E0900F550E4
:102F2C00FF6EFA50310E12001AEF18F04F51FF0AD3
:102F3C00FC6FFC3BFC47C050FC19DF0BFC19C06E4E
:102F4C00996B0A0EF66E260EF76E000EF86E02D80E
:102F5C00BEEF17F00500FA6E0900F550FD6E090082
:102F6C00F550FE6E0900F550FF6EFA50310E12004E
:102F7C001AEF18F04E51000AD8B479EF17F0010A85
:102F8C00D8B49CEF17F01AEF18F09251D8B4D1EFD7
:102F9C0017F0D3EF17F0F0EF17F003EC38F0060151
:102FAC00996B0A0EF66E260EF76E000EF86E02D8AE
:102FBC00EEEF17F00500FA6E0900F550FD6E0900F2
:102FCC00F550FE6E0900F550FF6EFA50320E1200ED
:102FDC001AEF18F021EE7DF302D8FFEF17F0050081
:102FEC00FA6EDE50FD6EDE50FE6EDE50FF6EFA5055
:102FFC0012000601996B0A0EF66E260EF76E000E85
:10300C00F86E02D818EF18F00500FA6E0900F550AA
:10301C00FD6E0900F550FE6E0900F550FF6EFA507A
:10302C00310E12001AEF18F006019951000AD8B4AB
:10303C001AEF18F0010AD8B4BFEF16F0030AD8B48F
:10304C006AEF17F0010AD8B4C0EF17F0070AD8B42A
:10305C00CBEF17F01AEF18F00DEF00F00501BA5195
:10306C00800BC36FBA51BA25C56FB9AF40EF18F0DA
:10307C0042EF18F043EF18F0C581C551D8B449EFB1
:10308C0018F04BEF18F05FEF18F0C529D8A451EFEA
:10309C0018F053EF18F05BEF18F0000EB76F000E3E
:1030AC00B86F000EB96F000EBA6FB98FBA6B67EFBD
:1030BC0018F0000EB76F000EB86F000EB96F000E4F
:1030CC00BA6FBE51800BC46FC351C419D8B471EF21
:1030DC0018F073EF18F074EF18F0C38DBE51BE25C5
:1030EC00C46FBDAF7CEF18F07EEF18F07FEF18F0D7
:1030FC00C481C451D8B485EF18F087EF18F09BEF5A
:10310C0018F0C429D8A48DEF18F08FEF18F097EFB2
:10311C0018F0000EBB6F000EBC6F000EBD6F000EE2
:10312C00BE6FBD8FBE6BA3EF18F0000EBB6F000E11
:10313C00BC6F000EBD6F000EBE6FC551C45DD8B024
:10314C00AAEF18F0ACEF18F0D3EF18F0C3ADB1EF55
:10315C0018F0B3EF18F0B5EF18F0800EC31BC5C50F
:10316C00C6F5C4C5C5F5C6C5C4F5B7C5C6F5BBC55A
:10317C00B7F5C6C5BBF5B8C5C6F5BCC5B8F5C6C56B
:10318C00BCF5B9C5C6F5BDC5B9F5C6C5BDF5BAC55D
:10319C00C6F5BEC5BAF5C6C5BEF5C66BC551C4C528
:1031AC00BFF5C06BBF5F000EC05BC0BFE7EF18F090
:1031BC00C05109E11A0EBF5DD8A0E7EF18F0E9EF96
:1031CC0018F020EF19F0B751B811B911BA11D8A4F1
:1031DC00F2EF18F0F5EF18F0010EF6EF18F0000E04
:1031EC00C66F000EB76F000EB86F000EB96F000EF1
:1031FC00BA6FC4C5C5F529EF19F0C6A108EF19F0CF
:10320C000AEF19F010EF19F0D890C6310109C66F0A
:10321C0012EF19F0D890C633B7A117EF19F019EFC8
:10322C0019F01AEF19F0C68FBA35BA33B933B8336F
:10323C00B733C52BC451C55DD8A027EF19F029EFC2
:10324C0019F003EF19F0C3BD2EEF19F030EF19F0A0
:10325C0070EF19F0C551D8A436EF19F038EF19F00A
:10326C0042EF19F0000EB76F000EB86F000EB96F79
:10327C00000EBA6F8FEF1AF0BB51B727BC51B823B1
:10328C00BD51B923BE51BA23BAA14FEF19F051EF7A
:10329C0019F0FDEF19F0C6A156EF19F058EF19F01F
:1032AC005EEF19F0D890C6310109C66F60EF19F0C6
:1032BC00D890C633B7A165EF19F067EF19F068EF36
:1032CC0019F0C68FBA35BA33B933B833B733C52B07
:1032DC00FDEF19F0BB51B75DBC51B859BD51B9598F
:1032EC00BA51800ABF6FBE51800ABF59D8B081EF66
:1032FC0019F083EF19F0AEEF19F0B751BB5DBF6F4A
:10330C00B851BC59C06FB951BD59C16FBA51BE59F2
:10331C00C26FFF0EBF25B76FFF0EC021B86FFF0E37
:10332C00C121B96FFF0EC221BA6F800EC31BC66DCF
:10333C00C651D8A4A4EF19F0A6EF19F0B6EF19F006
:10334C00010EB727000EB823B923BA23B6EF19F034
:10335C00BB51B75FBC51B85BBD51B95BBE51BA5BD9
:10336C00B751B811B911BA11D8A4BFEF19F0C1EF08
:10337C0019F0F6EF19F0C651D8A4C7EF19F0C9EF40
:10338C0019F0F6EF19F0000EB76F000EB86F000EC3
:10339C00B96F000EBA6F8FEF1AF0D890B737B837F5
:1033AC00B937BA37C6AFDDEF19F0DFEF19F0E0EF40
:1033BC0019F0B781C6A1E5EF19F0E7EF19F0EBEFC3
:1033CC0019F0D880C637EDEF19F0D890C637C55133
:1033DC00D8B4F3EF19F0F5EF19F0F6EF19F0C507C3
:1033EC00B9AFFBEF19F0FDEF19F0D3EF19F0C46B87
:1033FC00C6AF03EF1AF005EF1AF01DEF1AF0C6C5B1
:10340C00BFF57F0EBF17D8B40EEF1AF010EF1AF0FD
:10341C0014EF1AF0010EC46F1DEF1AF0B7A119EFDB
:10342C001AF01BEF1AF01DEF1AF010EF1AF0C4513E
:10343C00D8B423EF1AF025EF1AF050EF1AF0010E62
:10344C00B727000EB823B923BA23BAA130EF1AF06C
:10345C0032EF1AF050EF1AF0B7C5BFF5B8C5C0F58A
:10346C00B9C5C1F5BAC5C2F5C235C233C133C03313
:10347C00BF33BFC5B7F5C0C5B8F5C1C5B9F5C2C531
:10348C00BAF5C529D8B44DEF1AF04FEF1AF050EF3A
:10349C001AF0C52BC529D8B456EF1AF058EF1AF00C
:1034AC0060EF1AF0C551D8A45EEF1AF060EF1AF075
:1034BC0071EF1AF0000EB76F000EB86F000EB96FF7
:1034CC00000EBA6FC551D8A46EEF1AF070EF1AF057
:1034DC0071EF1AF0C36BC5A176EF1AF078EF1AF002
:1034EC007BEF1AF0B98F7CEF1AF0B99FD890C531E9
:1034FC00BA6FC3AF84EF1AF086EF1AF087EF1AF0A9
:10350C00BA8FB7C5B7F5B8C5B8F5B9C5B9F5BAC569
:10351C00BAF5120005018851800B916F88518825EE
:10352C00976F87AF9CEF1AF09EEF1AF09FEF1AF08F
:10353C0097819751D8B4A5EF1AF0A7EF1AF0BAEF0C
:10354C001AF09729D8A4ADEF1AF0AFEF1AF0B7EF35
:10355C001AF0000E856F000E866F000E876F000E3E
:10356C00886F878FC2EF1AF0000E856F000E866F82
:10357C00000E876F000E886F8C51800B911B8C5145
:10358C008C25926F8BAFCDEF1AF0CFEF1AF0D0EFF6
:10359C001AF092819251D8B4D6EF1AF0D8EF1AF0F3
:1035AC00EBEF1AF09229D8A4DEEF1AF0E0EF1AF044
:1035BC00E8EF1AF0000E896F000E8A6F000E8B6F09
:1035CC00000E8C6F8B8FF3EF1AF0000E896F000ECC
:1035DC008A6F000E8B6F000E8C6F9251D8B4F9EF7E
:1035EC001AF0FBEF1AF003EF1BF09751D8A401EF80
:1035FC001BF003EF1BF00DEF1BF0000E856F000EA0
:10360C00866F000E876F000E886FA3EF1CF08B5136
:10361C008503F3C49CF5F4C49DF59C51936F946B96
:10362C00956B966B9D51986F996B9A6B9B6B8A51AE
:10363C008603F3C49CF5F4C49DF59C519327000EAE
:10364C009423952396239D519827000E99239A2312
:10365C009B2389518703F3C49CF5F4C49DF59C51BD
:10366C009327000E9423952396239D519827000EA3
:10367C0099239A239B2395C596F594C595F593C5E7
:10368C0094F5936B89518603F3C49CF5F4C49DF5B2
:10369C009C5193279D519423000E9523000E962345
:1036AC008A518503F3C49CF5F4C49DF59C51932772
:1036BC009D519423000E9523000E962395C596F5E7
:1036CC0094C595F593C594F5936B89518503F3C413
:1036DC009CF5F4C49DF59C5193279D519423000EA9
:1036EC009523000E96238B518603F3C49CF5F4C4EA
:1036FC009DF59C5198279D519923000E9A23000EFD
:10370C009B238A518703F3C49CF5F4C49DF59C510B
:10371C0098279D519923000E9A23000E9B238B51C1
:10372C008703F3C49CF5F4C49DF59C518D6F9D519A
:10373C008E6F8F6B906B8FC590F58EC58FF58DC589
:10374C008EF58D6B8D5198278E5199238F519A231D
:10375C0090519B2393C58DF594C58EF595C58FF52A
:10376C0096C590F5190EC0EF1BF0D89090338F339F
:10377C008E338D33E82EBBEF1BF08D5198278E5175
:10378C0099238F519A2390519B2395C596F594C5F7
:10379C0095F593C594F5936B925197C58DF58E6BFA
:1037AC008D27000E8E23820E8D259C6FFF0E8E2191
:1037BC009D6FF6EF1BF0D890983799379A379B3757
:1037CC0096AFEBEF1BF0EDEF1BF0EEEF1BF09881DB
:1037DC00D89093379437953796379C07D8A09D0788
:1037EC009AAFFBEF1BF0FDEF1BF0E1EF1BF0926BC0
:1037FC0096AF03EF1CF005EF1CF029EF1CF0FF0E49
:10380C0093158D6FFF0E94158E6FFF0E95158F6FA0
:10381C007F0E9615906F8D518E118F119011D8B41B
:10382C001AEF1CF01CEF1CF020EF1CF0010E926F35
:10383C0029EF1CF098A125EF1CF027EF1CF029EFC5
:10384C001CF01CEF1CF09251D8B42FEF1CF031EF90
:10385C001CF055EF1CF0010E9827000E99239A23AB
:10386C009B239BA13CEF1CF03EEF1CF055EF1CF092
:10387C0098C58DF599C58EF59AC58FF59BC590F5B4
:10388C00903590338F338E338D338DC598F58EC52F
:10389C0099F58FC59AF590C59BF59C4B9D2B9DBFBB
:1038AC0060EF1CF09D5108E19C29D8A060EF1CF042
:1038BC0062EF1CF06CEF1CF0000E986F000E996F0D
:1038CC00800E9A6F7F0E9B6F99EF1CF09DBF79EF66
:1038DC001CF09D5106E19C05D8B077EF1CF079EFF8
:1038EC001CF084EF1CF0000E986F000E996F000E08
:1038FC009A6F000E9B6F916B99EF1CF09CC597F51E
:10390C00FF0E9817FF0E99177F0E9A17000E9B1734
:10391C0097A193EF1CF095EF1CF096EF1CF09A8F8B
:10392C00D89097319B6F91519B1398C585F599C58C
:10393C0086F59AC587F59BC588F512001250800B49
:10394C001B6E12501224216E11AEAFEF1CF0B1EFB2
:10395C001CF0B2EF1CF021802150D8B4B8EF1CF051
:10396C00BAEF1CF0CDEF1CF02128D8A4C0EF1CF04E
:10397C00C2EF1CF0CAEF1CF0000E0F6E000E106EA2
:10398C00000E116E000E126E118ED5EF1CF0000E93
:10399C000F6E000E106E000E116E000E126E165091
:1039AC00800B1B1A16501624206E15AEE0EF1CF07F
:1039BC00E2EF1CF0E3EF1CF020802050D8B4E9EFCC
:1039CC001CF0EBEF1CF0FEEF1CF02028D8A4F1EF5C
:1039DC001CF0F3EF1CF0FBEF1CF0000E136E000E4E
:1039EC00146E000E156E000E166E158E06EF1DF081
:1039FC00000E136E000E146E000E156E000E166E79
:103A0C002050D8B40CEF1DF00EEF1DF016EF1DF08A
:103A1C002150D8A414EF1DF016EF1DF020EF1DF06F
:103A2C00000E0F6E000E106E000E116E000E126E58
:103A3C00B6EF1EF015500F02F3C426F5F4C427F5AB
:103A4C0026501C6E1D6A1E6A1F6A2750226E236A3E
:103A5C00246A256A14501002F3C426F5F4C427F521
:103A6C0026501C26000E1D221E221F222750222605
:103A7C00000E23222422252213501102F3C426F512
:103A8C00F4C427F526501C26000E1D221E221F22D0
:103A9C0027502226000E2322242225221EC51FF584
:103AAC001DC51EF51CC51DF51C6A13501002F3C470
:103ABC0026F5F4C427F526501C2627501D22000E8F
:103ACC001E22000E1F2214500F02F3C426F5F4C45C
:103ADC0027F526501C2627501D22000E1E22000EF4
:103AEC001F221EC51FF51DC51EF51CC51DF51C6A24
:103AFC0013500F02F3C426F5F4C427F526501C26E8
:103B0C0027501D22000E1E22000E1F2215501002DF
:103B1C00F3C426F5F4C427F5265022262750232279
:103B2C00000E2422000E252214501102F3C426F597
:103B3C00F4C427F52650222627502322000E2422D7
:103B4C00000E252215501102F3C426F5F4C427F5F6
:103B5C002650176E2750186E196A1A6A19C51AF56D
:103B6C0018C519F517C518F5176A175022261850DD
:103B7C002322195024221A5025221CC517F51DC5C5
:103B8C0018F51EC519F51FC51AF5190ED3EF1DF042
:103B9C00D8901A32193218321732E82ECEEF1DF0A7
:103BAC001750222618502322195024221A5025224D
:103BBC001EC51FF51DC51EF51CC51DF51C6A205024
:103BCC0021C517F5186A1726000E1822820E172425
:103BDC00266EFF0E1820276E09EF1EF0D8902236A5
:103BEC002336243625361FAEFEEF1DF000EF1EF0F7
:103BFC0001EF1EF02280D8901C361D361E361F3663
:103C0C002606D8A0270624AE0EEF1EF010EF1EF0ED
:103C1C00F4EF1DF0206A1FAE16EF1EF018EF1EF029
:103C2C003CEF1EF0FF0E1C14176EFF0E1D14186EC9
:103C3C00FF0E1E14196E7F0E1F141A6E17501810DB
:103C4C0019101A10D8B42DEF1EF02FEF1EF033EF11
:103C5C001EF0010E206E3CEF1EF022A038EF1EF07D
:103C6C003AEF1EF03CEF1EF02FEF1EF02050D8B4B0
:103C7C0042EF1EF044EF1EF068EF1EF0010E2226FC
:103C8C00000E23222422252225A04FEF1EF051EFF7
:103C9C001EF068EF1EF022C517F523C518F524C5D4
:103CAC0019F525C51AF51A341A3219321832173289
:103CBC0017C522F518C523F519C524F51AC525F520
:103CCC00264A272A27BE73EF1EF0275008E1262824
:103CDC00D8A073EF1EF075EF1EF07FEF1EF0000EF4
:103CEC00226E000E236E800E246E7F0E256EACEFBE
:103CFC001EF027BE8CEF1EF0275006E12604D8B02C
:103D0C008AEF1EF08CEF1EF097EF1EF0000E226E65
:103D1C00000E236E000E246E000E256E1B6AACEF97
:103D2C001EF026C521F5FF0E2216FF0E23167F0E60
:103D3C002416000E251621A0A6EF1EF0A8EF1EF0EB
:103D4C00A9EF1EF0248ED8902130256E1B50251221
:103D5C0022C50FF523C510F524C511F525C512F59F
:103D6C0012000501A151800BAE6FA151A125B56FB9
:103D7C00A0AFC3EF1EF0C5EF1EF0C6EF1EF0B5816D
:103D8C00B551D8B4CCEF1EF0CEEF1EF0E2EF1EF022
:103D9C00B529D8A4D4EF1EF0D6EF1EF0DEEF1EF03E
:103DAC00000E9E6F000E9F6F000EA06F000EA16F95
:103DBC00A08FA16BEAEF1EF0000E9E6F000E9F6F9E
:103DCC00000EA06F000EA16FA551800BAE1BA5516C
:103DDC00A525B66FA4AFF5EF1EF0F7EF1EF0F8EFC8
:103DEC001EF0B681B651D8B4FEEF1EF000EF1FF0F6
:103DFC0014EF1FF0B629D8A406EF1FF008EF1FF040
:103E0C0010EF1FF0000EA26F000EA36F000EA46F38
:103E1C00000EA56FA48FA56B1CEF1FF0000EA26FF8
:103E2C00000EA36F000EA46F000EA56FA251A3117C
:103E3C00A411A511D8A425EF1FF027EF1FF03FEF19
:103E4C001FF0000E9E6F000E9F6F000EA06F000EF5
:103E5C00A16F800EA0137F0EA113AE51A1139EC5AE
:103E6C009EF59FC59FF5A0C5A0F5A1C5A1F57FEF57
:103E7C0020F0B551D8A445EF1FF047EF1FF051EFDC
:103E8C001FF0000E9E6F000E9F6F000EA06F000EB5
:103E9C00A16F7FEF20F0B651B5C5A6F5A76BA65F55
:103EAC00000EA75B7F0EA625AF6F000EA721B06F8B
:103EBC009EC5AAF59FC5ABF5A0C5ACF5A1C5ADF5E2
:103ECC00000E9E6F000E9F6F000EA06F000EA16F74
:103EDC00000EB16F000EB26F000EB36F000EB46F18
:103EEC00B66BB1EF1FF0B651D8B47FEF1FF081EF76
:103EFC001FF098EF1FF0D890AA37AB37AC37AD371F
:103F0C00D8909E379F37A037A137B4AF90EF1FF0F2
:103F1C0092EF1FF093EF1FF09E81D890B137B2371C
:103F2C00B337B437A251AA5DA351AB59A451AC59C4
:103F3C00A551AD59D8A0A5EF1FF0A7EF1FF0B0EF1A
:103F4C001FF0B48DA251AA5FA351AB5BA451AC5B23
:103F5C00A551AD5BB62B190EB665B7EF1FF0B9EFD7
:103F6C001FF079EF1FF0AA51AB11AC11AD11D8B401
:103F7C00C2EF1FF0C4EF1FF0DCEF1FF0B181DCEFDC
:103F8C001FF0D8909E379F37A037A137B4AFD1EF31
:103F9C001FF0D3EF1FF0D4EF1FF09E81D890B137F4
:103FAC00B237B337B437AF07D8A0B007A0AFE1EF43
:103FBC001FF0E3EF1FF0C7EF1FF0B66BB4AFE9EFE4
:103FCC001FF0EBEF1FF00FEF20F0FF0EB115A66FF7
:103FDC00FF0EB215A76FFF0EB315A86F7F0EB415A9
:103FEC00A96FA651A711A811A911D8B400EF20F000
:103FFC0002EF20F006EF20F0010EB66F0FEF20F06D
:10400C009EA10BEF20F00DEF20F00FEF20F002EF50
:10401C0020F0B651D8B415EF20F017EF20F03BEF9D
:10402C0020F0010E9E27000E9F23A023A123A1A107
:10403C0022EF20F024EF20F03BEF20F09EC5A6F5F8
:10404C009FC5A7F5A0C5A8F5A1C5A9F5A935A933A4
:10405C00A833A733A633A6C59EF5A7C59FF5A8C55B
:10406C00A0F5A9C5A1F5AF4BB02BB0BF46EF20F022
:10407C00B05108E1AF29D8A046EF20F048EF20F06E
:10408C0053EF20F0000EB06FAF69000E9E6F000E64
:10409C009F6F000EA06F000EA16FB0BF60EF20F0FD
:1040AC00B05106E1AF05D8B05EEF20F060EF20F024
:1040BC006DEF20F0000EB06F000EAF6F000E9E6F14
:1040CC00000E9F6F000EA06F000EA16FAE6BAFC500
:1040DC00B5F5B5A174EF20F076EF20F079EF20F074
:1040EC00A08F7AEF20F0A09FD890B531A16F33EF5D
:1040FC001FF012009BEF21F001C5D9F402C5DAF4D0
:10410C00DE04D8A48CEF20F08EEF20F0F4EF20F03A
:10411C0001C5D9F402C5DAF4DF50406F014A022A16
:10412C0001C5D9F402C5DAF4DF50416F014A022A05
:10413C0001C5D9F402C5DAF4DF50036E046AE80E47
:10414C000302F3C405F5F4C406F50402F350062685
:10415C00030E0302F350062605C507F506C508F540
:10416C00014A022A01C5D9F402C5DAF4DF50036E04
:10417C000350640DF3C409F5F4C40AF5014A022A8C
:10418C0001C5D9F402C5DAF4DF50036E03500A0DF1
:10419C00F3C40BF5F4C40CF5014A022A01C5D9F499
:1041AC0002C5DAF4DF50036E0350010DF3C40DF5B4
:1041BC00F4C40EF5014A022A09500724036E0A5072
:1041CC000820046E0B5003260C5004220D500324BF
:1041DC00426F0E500420436F010E996F01C5D9F444
:1041EC0002C5DAF4020EDE18D8A4FFEF20F001EFBE
:1041FC0021F041EF21F001C5D9F402C5DAF4DF500A
:10420C004A6F014A022A01C5D9F402C5DAF4DF501B
:10421C004B6F014A022A01C5D9F402C5DAF4DF500A
:10422C00036E0350640DF3C409F5F4C40AF5014A96
:10423C00022A01C5D9F402C5DAF4DF50036E03502B
:10424C000A0DF3C40BF5F4C40CF5014A022A01C59E
:10425C00D9F402C5DAF4DF50036E0350010DF3C438
:10426C000DF5F4C40EF5014A022A09500B240D2455
:10427C004C6F020E996F01C5D9F402C5DAF4030E26
:10428C00DE18D8A44CEF21F04EEF21F071EF21F0A5
:10429C0001C5D9F402C5DAF4DF504D6F014A022A88
:1042AC0001C5D9F402C5DAF4DF504E6F014A022A77
:1042BC0001C5D9F402C5DAF4DF50D8A468EF21F0B7
:1042CC006BEF21F0010E6CEF21F0000E4F6F014AE5
:1042DC00022A030E996F01C5D9F402C5DAF4040E53
:1042EC00DE18D8A47CEF21F07EEF21F0B5EF21F0A1
:1042FC0001C5D9F402C5DAF4DF50916F014A022AE4
:10430C0001C5D9F402C5DAF4DF50D8A490EF21F03E
:10431C0093EF21F0010E94EF21F0000E926F014A01
:10432C00022A040E996FB5EF21F006019851036E25
:10433C00046A0450000AD8B4A6EF21F0B5EF21F0BE
:10434C000350000AD8B482EF20F0010AD8B4B5EFBC
:10435C0021F0030AD8B4B5EF21F0B5EF21F012002B
:10436C004AC5D9F44BC5DAF4DFC4F6F4260EF76E61
:10437C00000EF86E0800F550250AD8A4C8EF21F0FD
:10438C00CAEF21F0D4EF22F04AC5D9F44BC5DAF4C8
:10439C00DF2A000E06017E6F000E7D6F7DC697F63C
:1043AC007F6980694AC501F54BC502F54CC503F51B
:1043BC004DC504F5B7EC2EF001C57DF602C57EF6B1
:1043CC0006017EBFEEEF21F0ECEF21F0F3EF21F0D0
:1043DC0097817D6D7E1FD8B07E2B4AC5D9F44BC515
:1043EC00DAF4DF50556E55C5F6F4260EF76E000E56
:1043FC00F86E0800F550640AD8B407EF22F009EF04
:10440C0022F019EF22F055C5F6F4260EF76E000EC9
:10441C00F86E0800F550690AD8A417EF22F019EFCE
:10442C0022F03FEF22F04CC5D9F44DC5DAF4DFC4CD
:10443C004EF5020EDE26DFC44FF5000EDD224EC512
:10444C00D9F44FC5DAF4DEC450F5DDC451F5552866
:10445C004AC5D9F44BC5DAF4DF6E48C53CF549C5FD
:10446C003DF550C53EF551C53FF587EC29F0EAEF17
:10447C0022F0546A4AC5D9F44BC5DAF4DFC4F6F419
:10448C00260EF76E000EF86E0800F550730AD8A4CD
:10449C0052EF22F054EF22F05DEF22F04AC5D9F42E
:1044AC004BC5DAF4DF2A010E546EA9EF22F04AC58F
:1044BC00D9F44BC5DAF4DFC4F6F4260EF76E000E11
:1044CC00F86E0800F5506C0AD8A46FEF22F071EF6B
:1044DC0022F0A9EF22F04AC5D9F44BC5DAF4DF502B
:1044EC004E6E010E4E264EC5F6F4260EF76E000EDD
:1044FC00F86E0800F5506C0AD8A487EF22F089EF0B
:10450C0022F0A9EF22F04AC5D9F44BC5DAF4DF50FA
:10451C004E6E020E4E264EC5F6F4260EF76E000EAB
:10452C00F86E0800F550730AD8A49FEF22F0A1EFA3
:10453C0022F0A9EF22F04AC5D9F44BC5DAF4030EE8
:10454C00DF2659EF22F05450D8B4AFEF22F0B1EF80
:10455C0022F0CDEF22F048C50DF549C50EF54CC53E
:10456C00D9F44DC5DAF4DFC44EF5020EDE26DFC4F5
:10457C004FF5000EDD224EC5D9F44FC5DAF4DEC47A
:10458C000FF5DDC410F5CEEC28F0EAEF22F04AC5A9
:10459C00D9F44BC5DAF4DF2AEAEF22F04AC5D9F494
:1045AC004BC5DAF4DFC4F6F4260EF76E000EF86E87
:1045BC000800F550046E056A48C506F549C507F5AF
:1045CC0052EC2EF0CDEF22F01200FAC471F5FBC4C0
:1045DC0072F5F6C473F5F7C474F5F8C475F5F5C443
:1045EC0076F5A5A6FCEF22F0FEEF22F009EF23F002
:1045FC00B5A603EF23F005EF23F009EF23F07AECD7
:10460C002FF0CFEF23F0A5A00EEF23F010EF23F047
:10461C001BEF23F0B5A015EF23F017EF23F01BEFE2
:10462C0023F088EC37F0CFEF23F0A5A420EF23F094
:10463C0022EF23F02DEF23F0B5A427EF23F029EF81
:10464C0023F02DEF23F086EC32F0CFEF23F0A5A270
:10465C0032EF23F034EF23F03FEF23F0B5A239EF24
:10466C0023F03BEF23F03FEF23F07DEC37F0CFEF5F
:10467C0023F0A1AE44EF23F046EF23F051EF23F0EB
:10468C00B1AE4BEF23F04DEF23F051EF23F0F4ECF0
:10469C0034F0CFEF23F09FA456EF23F058EF23F024
:1046AC0063EF23F0AFA45DEF23F05FEF23F063EF34
:1046BC0023F080EC38F0CFEF23F0A0A068EF23F0CC
:1046CC006AEF23F075EF23F0B0A06FEF23F071EFDA
:1046DC0023F075EF23F07EEC38F0CFEF23F0A2A699
:1046EC007AEF23F07CEF23F093EF23F0B2A681EF67
:1046FC0023F083EF23F093EF23F002D891EF23F014
:10470C000500FA6E06016B51FD6E6C51FE6E6D511B
:10471C00FF6EFA501200CFEF23F0A2A298EF23F015
:10472C009AEF23F0B1EF23F0B2A29FEF23F0A1EFA9
:10473C0023F0B1EF23F002D8AFEF23F00500FA6EAF
:10474C0006017151FD6E7251FE6E7351FF6EFA507F
:10475C001200CFEF23F0A2A0B6EF23F0B8EF23F0B6
:10476C00CFEF23F0B2A0BDEF23F0BFEF23F0CFEFDC
:10477C0023F002D8CDEF23F00500FA6E06016E513E
:10478C00FD6E6F51FE6E7051FF6EFA501200CFEF3E
:10479C0023F076C5F5F475C5F8F474C5F7F473C554
:1047AC00F6F472C5FBF471C5FAF41100EDC690F77E
:1047BC00EEC691F70601EF510501776F786B796BB7
:1047CC007A6B000EBCEC24F077C586F778C587F7BA
:1047DC0079C588F77AC589F7070120EE04F0905166
:1047EC00D9269151DA22DEC48AF7DDC48BF720EE8C
:1047FC0006F09051D9269151DA22DEC48CF7DDC433
:10480C008DF78CC777F58DC778F50501796B7A6BC9
:10481C00000EBCEC24F077C5BBF578C5BCF579C5AA
:10482C00BDF57AC5BEF5000E0501A26F000EA36F93
:10483C00340EA46F430EA56F86C789F587C78AF51A
:10484C0088C78BF589C78CF507018C518A5D0601E9
:10485C00F06F07018D518B590601F16FF0C677F59A
:10486C00F1C678F50501796B7A6B000EBCEC24F07F
:10487C0077C585F578C586F579C587F57AC588F548
:10488C0090EC1AF085C59EF586C59FF587C5A0F5F9
:10489C0088C5A1F5B7EC1EF09EC5B7F59FC5B8F558
:1048AC00A0C5B9F5A1C5BAF534EC18F0B7C5C7F574
:1048BC00B8C5C8F5B9C5C9F5BAC5CAF571EC2BF0C0
:1048CC00C7C58EF7C8C58FF7650E0501896FBF0E7A
:1048DC008A6F520E8B6F3E0E8C6F8EC777F58FC71B
:1048EC0078F5796B7A6B000EBCEC24F077C585F506
:1048FC0078C586F579C587F57AC588F590EC1AF0F8
:10490C0085C5C7F586C5C8F587C5C9F588C5CAF577
:10491C0071EC2BF0C7C58EF7C8C58FF76A0EF66E13
:10492C00260EF76E000EF86E02D8BBEF24F00500D1
:10493C00FA6E0900F550FD6E0900F550FE6E090087
:10494C00F550FF6EFA50000E0501806F000E7F6F60
:10495C008EC781F58FC782F5070120EE03F09051C9
:10496C00D9269151DA22DF501200120005017F6F17
:10497C0005017F51D8B4C5EF24F0C7EF24F0E9EF5F
:10498C0024F07ABFCEEF24F0CCEF24F0E9EF24F042
:10499C0077C57BF578C57CF579C57DF57AC57EF54F
:1049AC007B1F7C1F7D1F7E1F7B2B000E7C237D239A
:1049BC007E237BC581F57CC582F57DC583F57EC5DF
:1049CC0084F5F1EF24F077C581F578C582F579C5CA
:1049DC0083F57AC584F57751781179117A11D8A4B9
:1049EC00FAEF24F0FCEF24F006EF25F0000E776FC1
:1049FC00000E786F000E796F000E7A6F97EF25F02E
:104A0C00960E806F10EF25F0802BD8908433833373
:104A1C0082338133000E81157B6F000E82157C6F03
:104A2C00000E83157D6FFE0E84157E6F7B517C11FD
:104A3C007D117E11D8A425EF25F027EF25F00AEF84
:104A4C0025F035EF25F0802B010E8127000E8223F7
:104A5C0083238423D8908433833382338133000EB1
:104A6C0081157B6F000E82157C6F000E83157D6F98
:104A7C00FF0E84157E6F7B517C117D117E11D8A4A5
:104A8C004AEF25F04CEF25F029EF25F054EF25F0F7
:104A9C008007D890813782378337843783BF59EFAB
:104AAC0025F05BEF25F063EF25F0020E806161EFDE
:104ABC0025F063EF25F04EEF25F080B168EF25F07F
:104ACC006AEF25F06BEF25F0839FD890803380C57B
:104ADC007BF57C6B7D6B7E6B7BC57EF57D6B7C6B20
:104AEC007B6B7B5181137C5182137D5183137E51DF
:104AFC0084137F51D8B485EF25F087EF25F08FEF25
:104B0C0025F07ABF8EEF25F08CEF25F08FEF25F096
:104B1C00848F81C577F582C578F583C579F584C511
:104B2C007AF51200096E0950D8B49FEF25F0A1EF69
:104B3C0025F0C3EF25F004BEA8EF25F0A6EF25F075
:104B4C00C3EF25F001C505F502C506F503C507F54C
:104B5C0004C508F5051E061E071E081E052A000EB4
:104B6C0006220722082205C50BF506C50CF507C55C
:104B7C000DF508C50EF5CBEF25F001C50BF502C5FB
:104B8C000CF503C50DF504C50EF50150021003100C
:104B9C000410D8A4D4EF25F0D6EF25F0E0EF25F0E3
:104BAC00000E016E000E026E000E036E000E046EFF
:104BBC0071EF26F0960E0A6EEAEF25F00A2AD890CD
:104BCC000E320D320C320B32000E0B14056E000E31
:104BDC000C14066E000E0D14076EFE0E0E14086EED
:104BEC000550061007100810D8A4FFEF25F001EFB0
:104BFC0026F0E4EF25F00FEF26F00A2A010E0B2623
:104C0C00000E0C220D220E22D8900E320D320C32D8
:104C1C000B32000E0B14056E000E0C14066E000EFB
:104C2C000D14076EFF0E0E14086E055006100710BB
:104C3C000810D8A424EF26F026EF26F003EF26F078
:104C4C002EEF26F00A06D8900B360C360D360E36A3
:104C5C000DBE33EF26F035EF26F03DEF26F0020EB9
:104C6C000A603BEF26F03DEF26F028EF26F00AB065
:104C7C0042EF26F044EF26F045EF26F00D9ED8903B
:104C8C000A320AC505F5066A076A086A05C508F5F9
:104C9C00076A066A056A05500B1206500C1207507B
:104CAC000D1208500E120950D8B45FEF26F061EFC8
:104CBC0026F069EF26F004BE68EF26F066EF26F0CA
:104CCC0069EF26F00E8E0BC501F50CC502F50DC56E
:104CDC0003F50EC504F51200C90E0501776F060E1B
:104CEC00786F6FEC35F077C58FF678C590F68FC678
:104CFC0077F590C678F5030E0501796F020E7B6F80
:104D0C00200E7A6F090E7D6F600E7C6F8FC6D9F402
:104D1C0090C6DAF402D89DEF26F00500FA6EDE504C
:104D2C00FD6EDE50FE6EDE50FF6EFA5012008FC626
:104D3C00EDF690C6EEF6B40E0601EF6F20EE08F01D
:104D4C008F51D9269051DA2202D8B7EF26F0050000
:104D5C00FA6EDE50FD6EDE50FE6EDE50FF6EFA50C7
:104D6C001200BB0E0501776F060E786F6FEC35F0F5
:104D7C0077C58DF678C58EF68DC677F58EC678F527
:104D8C00060E0501796F020E7B6F200E7A6F090EED
:104D9C007D6FC40E7C6F8DC6D9F48EC6DAF402D842
:104DAC00E2EF26F00500FA6EDE50FD6EDE50FE6E70
:104DBC00DE50FF6EFA5012008DC6EDF68EC6EEF682
:104DCC00000E0601EF6F20EE08F08D51D9268E51A2
:104DDC00DA2202D8FCEF26F00500FA6EDE50FD6EEA
:104DEC00DE50FE6EDE50FF6EFA501200AD0E050165
:104DFC00776F060E786F6FEC35F077C58BF678C54C
:104E0C008CF68BC677F58CC678F50A0E0501796F92
:104E1C00020E7B6F200E7A6F090E7D6FC40E7C6FB5
:104E2C008BC6D9F48CC6DAF402D827EF27F005002C
:104E3C00FA6EDE50FD6EDE50FE6EDE50FF6EFA50E6
:104E4C0012008BC6EDF68CC6EEF6000E0601EF6F67
:104E5C0020EE08F08B51D9268C51DA2202D841EF82
:104E6C0027F00500FA6EDE50FD6EDE50FE6EDE5051
:104E7C00FF6EFA5012001200480E0501776F070EF4
:104E8C00786FD1EC32F077C5E0F578C5E1F5E0C587
:104E9C0077F5E1C578F5040E0501796F010E7B6F8E
:104EAC00F40E7A6FE0C5D9F4E1C5DAF402D869EFF3
:104EBC0027F00500FA6EDE50FD6EDE50FE6EDE5001
:104ECC00FF6EFA501200E0C5EDF6E1C5EEF6000EED
:104EDC000601F06F780EEF6F050120EE08F0E0513F
:104EEC00D926E151DA2202D886EF27F00500FA6EB6
:104EFC00DE50FD6EDE50FE6EDE50FF6EFA5012007C
:104F0C00340E0501776F070E786FD1EC32F077C550
:104F1C00DEF578C5DFF5DEC577F5DFC578F5080E6B
:104F2C000501796F010E7B6FF40E7A6FDEC5D9F433
:104F3C00DFC5DAF402D8ADEF27F00500FA6EDE50CB
:104F4C00FD6EDE50FE6EDE50FF6EFA501200DEC5B6
:104F5C00EDF6DFC5EEF6000E0601F06F640EEF6F96
:104F6C00050120EE08F0DE51D926DF51DA2202D8F5
:104F7C00CAEF27F00500FA6EDE50FD6EDE50FE6EB5
:104F8C00DE50FF6EFA501200200E0501776F070EEF
:104F9C00786FD1EC32F077C5DCF578C5DDF5DCC582
:104FAC0077F5DDC578F5010E0501796F030E7B6F82
:104FBC00E80E7A6FDCC5D9F4DDC5DAF402D8F1EF6E
:104FCC0027F00500FA6EDE50FD6EDE50FE6EDE50F0
:104FDC00FF6EFA501200DCC5EDF6DDC5EEF6020EE2
:104FEC000601F06FEE0EEF6F050120EE08F0DC51BC
:104FFC00D926DD51DA2202D80EEF28F00500FA6E20
:10500C00DE50FD6EDE50FE6EDE50FF6EFA5012006A
:10501C0012000501E651020D000EF324D96E060EA6
:10502C00F420DA6EDE6ADD6A0201B2A720EF28F006
:10503C0022EF28F044EF28F00501E651020D000E96
:10504C00F324D96E060EF420DA6E0601DF825F516E
:10505C0060116111D8B435EF28F037EF28F044EF28
:10506C0028F002D844EF28F00500FA6E5F51FD6E6F
:10507C006051FE6E6151FF6EFA5012000201B2A334
:10508C004AEF28F04CEF28F06EEF28F00501E651BE
:10509C00020D000EF324D96E060EF420DA6E060112
:1050AC00DF845C515D115E11D8B45FEF28F061EFC5
:1050BC0028F06EEF28F002D86EEF28F00500FA6E9B
:1050CC005C51FD6E5D51FE6E5E51FF6EFA5012002A
:1050DC000201B2AD74EF28F076EF28F098EF28F0CB
:1050EC000501E651020D000EF324D96E060EF420D4
:1050FC00DA6E0601DF8059515A115B11D8B489EF71
:10510C0028F08BEF28F098EF28F002D898EF28F0D1
:10511C000500FA6E5951FD6E5A51FE6E5B51FF6ED1
:10512C00FA501200A1C210F50501E6290F0B116E01
:10513C00E5511118D8A4A5EF28F0A7EF28F0A9EF96
:10514C0028F0B5EF28F0200EE625D96EDA6A060EA7
:10515C00DA2210C5DFF411C5E6F506019A2B06011B
:10516C00535154115511D8B4BEEF28F0C0EF28F0AC
:10517C00CDEF28F002D8CDEF28F00500FA6E535190
:10518C00FD6E5451FE6E5551FF6EFA501200120016
:10519C000FC517F510C518F517501810D8A4D9EF6E
:1051AC0028F0DBEF28F0E1EF28F0B30E176E175064
:1051BC00D8A4260E186E000E1A6E000E196EE9EFAA
:1051CC0028F0194A1A2A19501724116E1A5018204F
:1051DC00126E11C5F6F412C5F7F4000EF86E250E1A
:1051EC00F76403D00800F55005D0F6C4E9F4F7C411
:1051FC00EAF4EF500009D8A406EF29F008EF29F0E3
:10520C00E7EF28F019C513F51AC514F57DC615F589
:10521C007EC616F5060197B116EF29F018EF29F0A6
:10522C0054EF29F026EF29F0000E056E200E046EC7
:10523C000DC506F50EC507F552EC2EF0194A1A2AC3
:10524C001550195C1A50800A116E1650800A1158AC
:10525C00D8A033EF29F035EF29F01AEF29F054EFED
:10526C0029F017C5F6F418C5F7F4000EF86E250EE4
:10527C00F76403D00800F55005D0F6C4E9F4F7C480
:10528C00EAF4EF50116E1150046E056A0DC506F567
:10529C000EC507F552EC2EF0174A182A1306D8A0A3
:1052AC001406132806E11428D8A45FEF29F061EF47
:1052BC0029F037EF29F0060197A167EF29F069EF84
:1052CC0029F086EF29F077EF29F0000E056E200EFD
:1052DC00046E0DC506F50EC507F552EC2EF0194AF5
:1052EC001A2A1550195C1A50800A116E1650800A31
:1052FC001158D8A084EF29F086EF29F06BEF29F034
:10530C001200010E446E3FBE8EEF29F091EF29F092
:10531C00010E92EF29F0000E456E7DC642F57EC659
:10532C0043F54550D8B49DEF29F09FEF29F0B6EF27
:10533C0029F04206D8A043064550D8A4A8EF29F07E
:10534C00AAEF29F0B0EF29F0000E416E2B0E406E43
:10535C00B4EF29F0000E416E2D0E406E40C545F5A0
:10536C00000E476E1F0E466E07011F6BECEF29F007
:10537C004606D8A04706000E4624D96E070E4720D5
:10538C00DA6E3EC532F53FC533F5000E356E0A0EAA
:10539C00346E92EC30F032C538F533C539F5C3ECC8
:1053AC0035F03850300FDF6E446A4206D8A0430601
:1053BC003EC501F53FC502F5000E046E0A0E036EE4
:1053CC0019EC2FF001C53EF502C53FF547BEF7EFCE
:1053DC0029F0475008E14604D8A0F7EF29F0F9EF7F
:1053EC0029F00AEF2AF03E503F10D8A400EF2AF023
:1053FC0002EF2AF0BEEF29F04450D8A408EF2AF0AF
:10540C000AEF2AF0BEEF29F04550D8B410EF2AF07D
:10541C0012EF2AF01DEF2AF04606D8A04706000E20
:10542C004624D96E070E4720DA6E45C5DFF43CC51D
:10543C0014F53DC515F5000E4624166E070E4720D3
:10544C00176E42C518F543C519F535EC32F012004C
:10545C00050120EE50F07751D9267851DA22F20E60
:10546C00DE6E6C0EDE6E000EDE6E20EE65F0775199
:10547C00D9267851DA22AE0EDE6E6E0EDE6E000E7E
:10548C00DE6E20EE68F07751D9267851DA22000EC4
:10549C00DE6E000EDE6E000EDE6E20EE6BF07751CF
:1054AC00D9267851DA22920EDE6E6E0EDE6E000E6A
:1054BC00DE6E20EE6EF07751D9267851DA22000E8E
:1054CC00DE6E000EDE6E000EDE6E20EE80F077518A
:1054DC00D9267851DA22380EDE6E6E0EDE6E000E94
:1054EC00DE6E20EE83F07751D9267851DA22E40E65
:1054FC00DE6E6F0EDE6E000EDE6E20EE59F0775112
:10550C00D9267851DA22700EDE6E600EDE6E000E39
:10551C00DE6E20EE5CF07751D9267851DA22000E3F
:10552C00DE6E000EDE6E000EDE6E20EE5FF077514A
:10553C00D9267851DA22CC0EDE6E5B0EDE6E000EB2
:10554C00DE6E20EE74F07751D9267851DA22780E7F
:10555C00DE6E700EDE6E000EDE6E20EE7AF077518F
:10556C00D9267851DA22C80EDE6E630EDE6E000E7E
:10557C00DE6E20EE11F07751D9267851DA229A0E90
:10558C00DE6E670EDE6E000EDE6E77C577F578C5C3
:10559C0078F51200EDC6F9F6EEC6FAF6060120EE25
:1055AC0004F0F951D926FA51DA22EFC6DEF4F0C62E
:1055BC00DDF420EE06F0F951D926FA51DA22DEC4D8
:1055CC00F1F6DDC4F2F6F1C677F5F2C678F5050111
:1055DC00796B7A6B000EBCEC24F077C5F3F678C5CA
:1055EC00F4F679C5F5F67AC5F6F6000E0501BB6F33
:1055FC00000EBC6F800EBD6FBF0EBE6F000E896FAC
:10560C00000E8A6F800E8B6F450E8C6FF3C6A2F561
:10561C00F4C6A3F5F5C6A4F5F6C6A5F5EFC677F561
:10562C00F0C678F5796B7A6B000EBCEC24F077C57C
:10563C009EF578C59FF579C5A0F57AC5A1F5B7ECAF
:10564C001EF09EC585F59FC586F5A0C587F5A1C53D
:10565C0088F590EC1AF085C5B7F586C5B8F587C501
:10566C00B9F588C5BAF534EC18F0B7C5C7F5B8C5A7
:10567C00C8F5B9C5C9F5BAC5CAF571EC2BF0C7C5E3
:10568C00F7F6C8C5F8F66A0EF66E260EF76E000E23
:10569C00F86E02D870EF2BF00500FA6E0900F55089
:1056AC00FD6E0900F550FE6E0900F550FF6EFA50C4
:1056BC00000E0501806F000E7F6FF7C681F5F8C6EE
:1056CC0082F5060120EE03F0F951D926FA51DA22BF
:1056DC00DF50120012000501C935CA350601EC6F06
:1056EC00EC51D8A47CEF2BF07EEF2BF089EF2BF054
:1056FC00000E0501C76F000EC86F000EC96F000EBB
:10570C00CA6FFFEF2BF0C7C5CBF5C8C5CCF5C9C523
:10571C00CDF5CAC5CEF5200E9AEF2BF00501D89029
:10572C00CE33CD33CC33CB33E82E94EF2BF0CB519F
:10573C000601EB6F0501C98FFF0EC717FF0EC817C7
:10574C00FF0EC917000ECA17960E0601EC5FECBFD0
:10575C00B4EF2BF0B2EF2BF0CCEF2BF0EC51800A26
:10576C00970FD8B0BCEF2BF0BEEF2BF0C0EF2BF0A7
:10577C007EEF2BF00501D890CA33C933C833C73339
:10578C000601EC3FC0EF2BF0E6EF2BF01F0EEC65A3
:10579C00D2EF2BF0D4EF2BF0DEEF2BF07EEF2BF0D3
:1057AC000501D890C737C837C937CA370601EC0787
:1057BC00EC51D8A4E4EF2BF0E6EF2BF0D6EF2BF066
:1057CC00EB51D8B4ECEF2BF0EEEF2BF0F7EF2BF016
:1057DC000501CA1FC91FC81FC76D000EC823C923E6
:1057EC00CA23C7C5C7F5C8C5C8F5C9C5C9F5CAC553
:1057FC00CAF51200000E050177157F6F000E7815A3
:10580C00806F800E7915816F7F0E7A15826F7F51B4
:10581C00801181118211D8A416EF2CF018EF2CF006
:10582C0020EF2CF0000E776F000E786F000E796F62
:10583C00000E7A6F000E7B157F6F000E7C15806F4B
:10584C00800E7D15816F7F0E7E15826F7F518011CA
:10585C0081118211D8A435EF2CF037EF2CF03FEFEB
:10586C002CF0000E7B6F000E7C6F000E7D6F000E17
:10587C007E6F7AAF44EF2CF046EF2CF04FEF2CF00C
:10588C00776D781FD8B0782B791FD8B0792B800E14
:10589C007A577EAF54EF2CF056EF2CF05FEF2CF0D4
:1058AC007B6D7C1FD8B07C2B7D1FD8B07D2B800EE0
:1058BC007E57000E771B000E781B000E791B800E96
:1058CC007A1B000E7B1B000E7C1B000E7D1B800EBA
:1058DC007E1B7B51775D7C5178597D5179597E5176
:1058EC007A59D8B07CEF2CF07EEF2CF081EF2CF0B5
:1058FC00D89082EF2CF0D88012002A342B34316EE1
:10590C003150D8A48CEF2CF08EEF2CF098EF2CF0BB
:10591C00000E286E000E296E000E2A6E000E2B6EE5
:10592C0005EF2DF028C52CF529C52DF52AC52EF52A
:10593C002BC52FF5200EA8EF2CF0D8902F322E323D
:10594C002D322C32E82EA3EF2CF02C50306E2A8EF8
:10595C00FF0E2816FF0E2916FF0E2A16000E2B1608
:10596C00960E315E31BEBFEF2CF0BDEF2CF0D5EFB3
:10597C002CF03150800A970FD8B0C7EF2CF0C9EF3C
:10598C002CF0CBEF2CF08EEF2CF0D8902B322A325F
:10599C0029322832313ECBEF2CF0EDEF2CF01F0EDC
:1059AC003164DBEF2CF0DDEF2CF0E5EF2CF08EEF1B
:1059BC002CF0D890283629362A362B363106315021
:1059CC00D8A4EBEF2CF0EDEF2CF0DFEF2CF03050F7
:1059DC00D8B4F3EF2CF0F5EF2CF0FDEF2CF02B1EE0
:1059EC002A1E291E286C000E29222A222B2228C5A9
:1059FC0028F529C529F52AC52AF52BC52BF5120042
:105A0C0021EEDEF202D815EF2DF00500FA6EDE5015
:105A1C00FD6EDE50FE6EDE50FF6EFA5012000F6E01
:105A2C009D0E0501E425D96EDA6A060EDA220FC541
:105A3C00DFF4030EE46525EF2DF027EF2DF075EF65
:105A4C002DF09D0EE425D96EDA6A060EDA22DE28D8
:105A5C00D8A433EF2DF035EF2DF075EF2DF09C0E13
:105A6C00E425D96EDA6A060EDA22DE28D8A441EFD4
:105A7C002DF043EF2DF075EF2DF09B0EE425D96E34
:105A8C00DA6A060EDA22DE28D8A44FEF2DF051EF99
:105A9C002DF075EF2DF09D0E016E060E026E02D8E4
:105AAC0063EF2DF00500FA6E06014451FD6E455171
:105ABC00FE6E4651FF6EFA5012009D0E016E060EE0
:105ACC00026E000E046E000E036E000E066E100EBB
:105ADC00056E8BEC35F00501E46B76EF2DF0E42BC5
:105AEC001200000E0501776F080E786F2EEC2AF06D
:105AFC0077C589F678C58AF6000E0501776F090E11
:105B0C00786F2EEC2AF077C587F678C588F6000EEC
:105B1C000501776F0A0E786F2EEC2AF077C585F6A3
:105B2C0078C586F6000E0501776F0B0E786F2EEC9C
:105B3C002AF077C583F678C584F689C67DF58AC6C2
:105B4C007EF5000E05017F6F000E806FA10E816F38
:105B5C00060120EE50F08951D9268A51DA2202D85A
:105B6C00C2EF2DF00500FA6EDE50FD6EDE50FE6EBB
:105B7C00DE50FF6EFA50120089C677F58AC678F5AA
:105B8C00D70E0501796F060E7A6F060120EE80F0B4
:105B9C008951D9268A51DA2202D8DFEF2DF005007F
:105BAC00FA6EDE50FD6EDE50FE6EDE50FF6EFA5069
:105BBC0012002DEC38F077C581F678C582F612000C
:105BCC005EC56EF55FC56FF56EC536F56FC537F5FD
:105BDC00050120EE59F06E51D9266F51DA2202D808
:105BEC0002EF2EF00500FA6EDE50FD6EDE50FE6EFA
:105BFC00DE50FF6EFA50120036C5D9F437C5DAF410
:105C0C00DEC46AF5DEC46BF5DEC46CF5DEC46DF57E
:105C1C006AC528F56BC529F56CC52AF56DC52BF53C
:105C2C0083EC2CF028C567F529C568F5000E136EBA
:105C3C00000E146E200E156E410E166E6AC50FF511
:105C4C006BC510F56CC511F56DC512F5A4EC1CF007
:105C5C000FC528F510C529F511C52AF512C52BF568
:105C6C0083EC2CF02850326E336A000E356E0A0E1F
:105C7C00346E92EC30F032500501696FAB0E606FF0
:105C8C009C0E6725616FFF0E6821626F69C563F515
:105C9C00646B0BEC37F0120006500710D8B459EFB8
:105CAC002EF05BEF2EF064EF2EF006500710D8A408
:105CBC0062EF2EF064EF2EF069EF2EF004503AEC08
:105CCC0037F0B6EF2EF020EE09F00650D92607502B
:105CDC00DA22DE50DE10D8B476EF2EF078EF2EF00C
:105CEC0093EF2EF020EE09F00650D9260750DA2259
:105CFC0010EE02F00650E1260750E222DE50E65C80
:105D0C00E650800A0C6EDE50800A0C58D8B091EF29
:105D1C002EF093EF2EF0B6EF2EF020EE02F00650A0
:105D2C00D9260750DA22DEC408F5DDC409F506C50C
:105D3C00D9F407C5DAF4DEC40AF5DDC40BF5085056
:105D4C000A24D96E09500B20DA6E04C5DFF420EE5C
:105D5C0002F00650D9260750DA22DE2A000EDD2288
:105D6C001200000E096E000E086E01C5D9F402C5B2
:105D7C00DAF4DFC4F6F4260EF76E000EF86E0800A7
:105D8C00F5502A0AD8A4CDEF2EF0CFEF2EF0FEEF6F
:105D9C002EF001C5D9F402C5DAF4DF2A03C5D9F413
:105DAC0004C5DAF4DFC405F5020EDE26DFC406F501
:105DBC00000EDD2205C5D9F406C5DAF4DEC408F5FB
:105DCC00DDC409F514EF2FF00A0E0802F3C405F533
:105DDC00F4C406F50902F350062607500524086E94
:105DEC00000E0620096E01C5D9F402C5DAF4DF2ACB
:105DFC0001C5D9F402C5DAF4DFC4F6F4260EF76E49
:105E0C00000EF86E0800F550D00F076E090E0764EF
:105E1C0012EF2FF014EF2FF0EAEF2EF008C501F57A
:105E2C0009C502F51200066A04BE21EF2FF01FEF20
:105E3C002FF027EF2FF0036C041ED8B0042A010EAC
:105E4C00066E02BE2EEF2FF02CEF2FF034EF2FF05A
:105E5C00016C021ED8B0022A010E061A000E086E42
:105E6C00000E076E03500410D8B43FEF2FF041EF33
:105E7C002FF069EF2FF0010E056E49EF2FF0D8903F
:105E8C0003360436052A04AE4EEF2FF050EF2FF0F8
:105E9C0045EF2FF0D890073608360350015C0450BC
:105EAC000258D8A05CEF2FF05EEF2FF063EF2FF0CD
:105EBC000350015E0450025A0780D890043203321A
:105ECC00052E50EF2FF00650D8B46FEF2FF071EF76
:105EDC002FF075EF2FF0076C081ED8B0082A07C5F5
:105EEC0001F508C502F51200B4EC37F00009D8B47E
:105EFC0082EF2FF084EF2FF08DEF2FF0030E0501C2
:105F0C00DB6F0201979B33EC35F0D8EF2FF0BFEC31
:105F1C0037F00009D8B495EF2FF097EF2FF0AAEFD8
:105F2C002FF093EC37F00009D8B49FEF2FF0A1EFCE
:105F3C002FF0AAEF2FF0010E0501DB6F02019799EC
:105F4C008CEC36F0D8EF2FF09EEC37F00009D8B47B
:105F5C00B2EF2FF0B4EF2FF0C5EF2FF093EC37F03A
:105F6C000009D8B4BCEF2FF0BEEF2FF0C5EF2FF027
:105F7C00020E0501DB6F02019799A6EF2FF0A9EC39
:105F8C0037F00009D8B4CDEF2FF0CFEF2FF0D6EFCC
:105F9C002FF0030E0501DB6F0201979DD8EF2FF058
:105FAC00020197990501DB511200A2901E0E060109
:105FBC006E6F500E6F6F000E706FA292280E716F85
:105FCC006A0E726F000E736FA296D00E6B6F700E0E
:105FDC006C6F000E6D6F0201A26BA46BA56BA66BB0
:105FEC00A76BA86BA96BAA6BB00EAB6F800EAC6FD6
:105FFC00080EAD6F820EAE6F060EAF6F2E0EB06F29
:10600C00B16B800EB26FB36B080E0501776F710E1A
:10601C00786F000E796FF9EC36F0060E0501776F8C
:10602C00710E786F000E796FE7EC36F0040E0501F7
:10603C00776F710E786F000E796FD5EC36F0000E1D
:10604C000601946F000E936F0501E86B06019B6BC4
:10605C00100E0501E76FE66BE56B06019A6BA280EB
:10606C00A286120036C539F537C53AF539C501F5A2
:10607C003AC502F520EE83F03950D9263A50DA228F
:10608C0002D853EF30F00500FA6EDE50FD6EDE5094
:10609C00FE6EDE50FF6EFA50120001C506F502C509
:1060AC0007F520EE74F03950D9263A50DA2202D88E
:1060BC006AEF30F00500FA6EDE50FD6EDE50FE6EBB
:1060CC00DE50FF6EFA50120020EE7AF03950D926CD
:1060DC003A50DA2202D87DEF30F00500FA6EDE502D
:1060EC00FD6EDE50FE6EDE50FF6EFA50120020EE9A
:1060FC0003F03950D9263A50DA2228C5DEF429C5E6
:10610C00DEF42AC5DEF42BC5DEF4030E3924366E1C
:10611C00000E3A20376E1200376A33BE9AEF30F019
:10612C0098EF30F0A0EF30F0326C331ED8B0332A39
:10613C00010E376E35BEA7EF30F0A5EF30F0ABEFA8
:10614C0030F0346C351ED8B0352A34503510D8B4F4
:10615C00B2EF30F0B4EF30F0D8EF30F0010E366E15
:10616C00BCEF30F0D89034363536362A35AEC1EF28
:10617C0030F0C3EF30F0B8EF30F03450325C3550C3
:10618C003358D8A0CCEF30F0CEEF30F0D2EF30F067
:10619C003450325E3550335AD89035323432362E34
:1061AC00C3EF30F03750D8B4DEEF30F0E0EF30F022
:1061BC00E4EF30F0326C331ED8B0332A32C532F5EE
:1061CC0033C533F51200760EF66E6C0EF76E000EBC
:1061DC00F86E01EE5CF310EE2AF00900F5C4EEF453
:1061EC00E550E150FAE1D00EF66E6F0EF76E000E30
:1061FC00F86E01EED8F210EE13F00900F5C4EEF4CF
:10620C00E550E150FAE102EE00F3860EEE6AE80684
:10621C00FDE102EE00F2860EEE6AE806FDE102EE0A
:10622C0000F1860EEE6AE806FDE102EE00F0860E45
:10623C00EE6AE806FDE101EE00F35C0EEE6AE8069C
:10624C00FDE101EE00F2D80EEE6AE806FDE101EE8A
:10625C00CFF11A0EEE6AE806FDE10401080E5D6F3F
:10626C00000E5E6F000E5F6F0001CEEF15F0BE6A80
:10627C00060EBF6EC06AC16AC26AC36A0401026BB1
:10628C00060E0A6F126B1A6B226B2A6BC668F90E1C
:10629C00C76EC868C9680F0ECA6EFE0ECB6E006959
:1062AC00F90E086F10691869070E206FFC0E286F25
:1062BC00016B096B116B196B216B296B03690B69F2
:1062CC0013691B69070E236F2B6904690C69146928
:1062DC001C690F0E246F2C690201896B886B876B0C
:1062EC00866B290E726F200E296F090E716F370E97
:1062FC000A6F0A0E706F380E0B6F0401056B066B7C
:10630C00076B0D6B0E6B0F6B156B166B176B256B91
:10631C00266B276B12000501836F05018351040D59
:10632C00F350060F896F89C584F57FC585F58051BB
:10633C00866F81C587F58251886F000E796F400E8C
:10634C00786F840E7A6F050E7B6F000E7D6F050ED5
:10635C007C6F4F0EF66E260EF76E000EF86E02D89E
:10636C00C5EF31F00500FA6E0900F550FD6E09001D
:10637C00F550FE6E0900F550FF6EFA5012005E0EDD
:10638C00F66E260EF76E000EF86E02D8DBEF31F0CB
:10639C000500FA6E0900F550FD6E0900F550FE6E11
:1063AC000900F550FF6EFA5012000009D8A4E1EF75
:1063BC0031F0E3EF31F0C5EF31F0120095C6D9F4AE
:1063CC0096C6DAF4DF5024EC36F001C534F502C57C
:1063DC0035F5000E136E000E146EA00E156E3B0EEE
:1063EC00166E34C501F535C502F5036A046A000E54
:1063FC0098EC25F001C50FF502C510F503C511F594
:10640C0004C512F5A4EC1CF00FC530F510C531F520
:10641C0011C532F512C533F530C50FF531C510F580
:10642C0032C511F533C512F5000E136E000E146E45
:10643C00C80E156E420E166EA4EC1CF00FC52CF592
:10644C0010C52DF511C52EF512C52FF52CC528F547
:10645C002DC529F52EC52AF52FC52BF512000601E1
:10646C0097A13BEF32F03DEF32F047EF32F016C51B
:10647C000DF517C50EF514C50FF515C510F5B2ECD5
:10648C0034F019BE4EEF32F04CEF32F052EF32F0E6
:10649C00000E196E000E186E000E1C6E000E1B6E98
:1064AC0064EF32F0000E056E200E046E14C506F576
:1064BC0015C507F552EC2EF01B4A1C2A18501B5C14
:1064CC001C50800A1A6E1950800A1A58D8A071EF05
:1064DC0032F073EF32F058EF32F0060197B179EFEA
:1064EC0032F07BEF32F085EF32F016C50DF517C5A3
:1064FC000EF514C50FF515C510F5B2EC34F01200FD
:10650C0002019BA58CEF32F08EEF32F099EF32F056
:10651C009AA593EF32F095EF32F099EF32F065ECEB
:10652C0036F0D0EF32F09BAF9EEF32F0A0EF32F0AE
:10653C00BCEF32F09AAFA5EF32F0A7EF32F0BCEF20
:10654C0032F00501DA51D8B4AEEF32F0B0EF32F0E0
:10655C00B8EF32F0DA6B02019A919A9F50EC36F058
:10656C00D0EF32F08CEC36F095EF32F09BA3C1EF0C
:10657C0032F0C3EF32F0D0EF32F09AA3C8EF32F022
:10658C00CAEF32F0D0EF32F071EC38F002019A938E
:10659C00D0EF32F0120077C5D9F478C5DAF4EA0EF0
:1065AC00DE6E6B0EDE6E000EDE6E050120EE08F068
:1065BC007751D9267851DA22A00EDE6E550EDE6E9A
:1065CC00000EDE6E20EE0BF07751D9267851DA22D0
:1065DC00000EDE6E000EDE6E000EDE6E20EE0EF095
:1065EC007751D9267851DA22000EDE6E000EDE6E5F
:1065FC00000EDE6E20EE11F07751D9267851DA229A
:10660C00000EDE6E000EDE6E000EDE6E77C577F5C8
:10661C0078C578F512000301F39FD96BDA6BDB6B4D
:10662C00DC6BDF6BE06BE56BE76BEC6BEE6BEF6BD6
:10663C00D86BF06BF16BF26BF46B980EF56F100E70
:10664C00F66FF76BF86B1F0EFA6FF96B000E060105
:10665C007A6F000E7B6F000E7C6F000E776F000E52
:10666C00786F000E796F9C6BAF949F94B090A09054
:10667C00840E0301F36F1200C0AC47EF33F04CEF04
:10668C0033F00501706B702B4EEF33F00501706B1E
:10669C00703B70477047C0507019BF0B7019C06EBB
:1066AC007CEC38F089C65EF58AC65FF5060120EEF3
:1066BC005FF08951D9268A51DA2202D870EF33F073
:1066CC000500FA6EDE50FD6EDE50FE6EDE50FF6E83
:1066DC00FA5012007AEC38F01200040E0201946F9A
:1066EC00800E956F080E966F030E9C6F9A6B9B6BCA
:1066FC00976B8D6B510E896F510E886FCAEC37F00A
:10670C0002019B919B95948F050EE82EFED70000FD
:10671C0000000000000000000000000002019A913F
:10672C009A959B85000E0601746F000E756F000E16
:10673C00766F120005017E6BDDEC35F00009D8A4F4
:10674C00AAEF33F0ACEF33F0CAEF33F0010E0501D2
:10675C00CF6F78C5D0F579C5D1F5DA6B7AC5D2F59E
:10676C007BC5D3F57CC5D4F57DC5D5F5000ED66FAC
:10677C00000ED76F000ED96F000ED86FDB6BD4EC08
:10678C0034F0010E05017E6F05017E511200D7AE6B
:10679C00D2EF33F047EF34F00501786FA2B2D9EFA6
:1067AC0033F0DBEF33F0DFEF33F078C5A3F2F7EF24
:1067BC0033F00501E751D8B4E6EF33F0E8EF33F0EE
:1067CC00F7EF33F0300EE825D96EDA6A060EDA22CE
:1067DC0078C5DFF4E8290F0B776F77C5E8F5A2923F
:1067EC00E707A2821200DDEC35F00009D8A401EF16
:1067FC0034F003EF34F01FEF34F0010E0501CF6FCE
:10680C0078C5D0F579C5D1F5010EDA6F7AC5D2F518
:10681C007BC5D3F57CC5D4F57DC5D5F57EC5D6F540
:10682C007FC5D7F580C5D8F581C5D9F5DB6BD4EC20
:10683C0034F0120058C55BF532EF34F056C548F50C
:10684C0057C549F55B0E4A6E050E4B6E59C54CF596
:10685C005AC54DF5B6EC21F05BC5F6F4260EF76E75
:10686C00000EF86E0800F5500009D8A440EF34F083
:10687C0042EF34F024EF34F0000E576E000E566EDB
:10688C001200026EA2B24DEF34F04FEF34F053EF22
:10689C0034F002C5A3F26BEF34F00501E751D8B424
:1068AC005AEF34F05CEF34F06BEF34F0300EE82537
:1068BC00D96EDA6A060EDA2202C5DFF4E8290F0B6C
:1068CC00016E01C5E8F5A292E707A2821200D69AE2
:1068DC00AF90D680000E0501776F000E786F000E1A
:1068EC00796F26EC38F0B490D682000E0501776FE4
:1068FC00000E786F000E796F1FEC38F0B890D684CC
:10690C00000E0501776F000E786F000E796F18EC92
:10691C0038F0120077C57EF578C57FF5050120EEBD
:10692C0003F07E51D9267F51DA2279C5DFF420EEAF
:10693C0006F07E51D9267F51DA227AC5DEF47BC56A
:10694C00DDF420EE04F07E51D9267F51DA227CC58D
:10695C00DEF47DC5DDF41200000E136E000E126E17
:10696C00C3EF34F011C504F5056A0FC506F510C563
:10697C0007F552EC2EF0124A132A12500D24D96E40
:10698C0013500E20DA6EDF50116E1150D8A4D1EFD7
:10699C0034F0D3EF34F0B8EF34F012000501D451D9
:1069AC00D511D8B4DCEF34F0DEEF34F0ECEF34F08A
:1069BC00D45132EC38F00501DA51D8B4E8EF34F0A8
:1069CC00EAEF34F0ECEF34F065EC38F00501D0511F
:1069DC00D02537EC38F062EC38F012000501E351A9
:1069EC000301196FE2C518F30601FD51FE11FF11E9
:1069FC00D8B403EF35F005EF35F012EF35F002D8CF
:106A0C0012EF35F00500FA6EFD51FD6EFE51FE6E73
:106A1C00FF51FF6EFA501200B19E1200100E0501CC
:106A2C00E7611BEF35F01DEF35F031EF35F0300E2F
:106A3C0006019B25D96EDA6A060EDA22DF500201B6
:106A4C00A36F06019B290F0B016E01C59BF6050177
:106A5C00E72B32EF35F0A292120077EC38F041ECD4
:106A6C0038F0FBEC37F052EC38F00201949FDEEC7E
:106A7C0037F002019B919B95948F050EE82EFED763
:106A8C0000000000000000000000000000000201F7
:106A9C009A919A959B8512000B0E0301196FDC0ECF
:106AAC00186F7A0E1B6F19510501776F030118517E
:106ABC000501E26F77C5E3F50A0E0601FD6F710E55
:106ACC00FE6F000EFF6FB19EA18E900E03011A6F28
:106ADC00120077C5D9F478C5DAF4200EDE6E690E93
:106AEC00DE6E000EDE6E050120EE08F07751D92621
:106AFC007851DA22B80EDE6E470EDE6E000EDE6EB8
:106B0C0077C577F578C578F5120001C507F502C58C
:106B1C0008F599EF35F007C5D9F408C5DAF403C5C3
:106B2C00DFF4074A082A0506D8A00606052806E160
:106B3C000628D8A4A4EF35F0A6EF35F091EF35F088
:106B4C001200200E0501E525D96EDA6A060EDA224E
:106B5C00DF50026EE5290F0B016E01C5E5F5A29021
:106B6C0006019A51D8B4BDEF35F0BFEF35F0C0EF48
:106B7C0035F09A07A2800250120039BEC8EF35F0EA
:106B8C00CAEF35F0D0EF35F038C538F539C539F5E1
:106B9C00DCEF35F038C53AF539C53BF53A1E3B1EEE
:106BAC003A4A3B2A3AC538F53BC539F51200010E75
:106BBC000501776FCF51D8A4E6EF35F0E8EF35F04B
:106BCC00F2EF35F0020198AFEEEF35F0F0EF35F063
:106BDC00F2EF35F00501776B05017751120077C59F
:106BEC007CF578C57DF5050120EE06F07C51D926A3
:106BFC007D51DA227AC5DEF47BC5DDF420EE03F09C
:106C0C007C51D9267D51DA2279C5DFF412000C0EA5
:106C1C000501776F5A0E786F000E796F21EEE7F24F
:106C2C0002D823EF36F00500FA6EDE50FD6EDE5012
:106C3C00FE6EDE50FF6EFA5012001200056E05C596
:106C4C00ECF30301F39DF381F3B12FEF36F031EF49
:106C5C0036F02AEF36F0EB51046E036AEA51032446
:106C6C00016E000E0420026E1200A46A00000000E7
:106C7C00BE700000000000000000000000000000DA
:106C8C0000005A7000000000067000147000E869E3
:106C9C00002270000501D851D911D8B458EF36F044
:106CAC005AEF36F05DEF36F0D8514AEC38F0D88018
:106CBC000501D03546EC38F06EEC38F012000501C9
:106CCC00CF6B000ED16FD069000ED26F000ED36F58
:106CDC00000ED66F000ED76F77EC38F041EC38F021
:106CEC0052EC38F012007DC577F57EC578F57FC57E
:106CFC0079F580C57AF557EC37F07DC577F57EC50B
:106D0C0078F581C579F549EC37F0120071EC38F063
:106D1C0074EC38F00009D8B496EF36F098EF36F0F2
:106D2C009EEF36F0000E4AEC38F0000E4EEC38F0C8
:106D3C0012000501775178117911D8B4A8EF36F00B
:106D4C00AAEF36F0B0EF36F077C547F678C548F6BF
:106D5C0079C549F612000501775178117911D8B42B
:106D6C00BAEF36F0BCEF36F0C2EF36F077C544F62A
:106D7C0078C545F679C546F61200050177517811AC
:106D8C007911D8B4CCEF36F0CEEF36F0D4EF36F034
:106D9C0077C553F678C554F679C555F6120005013A
:106DAC00775178117911D8B4DEEF36F0E0EF36F088
:106DBC00E6EF36F077C559F678C55AF679C55BF625
:106DCC0012000501775178117911D8B4F0EF36F033
:106DDC00F2EF36F0F8EF36F077C55CF678C55DF675
:106DEC0079C55EF612000501775178117911D8B486
:106DFC0002EF37F004EF37F00AEF37F077C55FF6A4
:106E0C0078C560F679C561F61200610E5C6E050EF0
:106E1C005D6E000E566E000E576E60C558F55C0E1A
:106E2C00596E050E5A6E20EC34F0120077C57BF5C6
:106E3C0078C57CF579C5D9F47AC5DAF47BC5E1F46B
:106E4C007CC5E2F4DFC4E7F41200D4EC37F03DEC7F
:106E5C0031F011EC33F052EC35F073EC33F0DBEC39
:106E6C002FF06DEC34F01200036E71EC37F000096A
:106E7C00D8B443EF37F045EF37F03BEF37F0035022
:106E8C0047EC34F0120077C57AF578C57BF505012F
:106E9C0020EE02F07A51D9267B51DA2279C5DFF443
:106EAC00120077C57BF578C57CF5050120EE01F065
:106EBC007B51D9267C51DA2279C5DFF412000DEC16
:106ECC0036F0000E0501776F410E786F000E796F6A
:106EDC00B1EC36F012000501E751D8A478EF37F089
:106EEC007BEF37F0010E7CEF37F0000E1200D2C5AD
:106EFC00D9F4D3C5DAF40501D24BD32BDF504EECC9
:106F0C0038F012006BEC38F0D6C5D9F4D7C5DAF4EA
:106F1C00DF6E0501D64BD72B1200020195BB99EF02
:106F2C0037F09CEF37F0010E9DEF37F0000E12009A
:106F3C00020198B7A4EF37F0A7EF37F0010EA8EFD6
:106F4C0037F0000E1200020197BDAFEF37F0B2EF31
:106F5C0037F0010EB3EF37F0000E1200020197BBB1
:106F6C00BAEF37F0BDEF37F0010EBEEF37F0000E81
:106F7C001200020198A7C5EF37F0C8EF37F0010EE9
:106F8C00C9EF37F0000E1200A584A586A580A58256
:106F9C0002019B859B839B8F97811200600E0001E1
:106FAC00AD6FAF6BB36B080EB16FB06BAC6B120007
:106FBC00A584A586A580A58202019B859B839B8FBA
:106FCC00978112001A6C009A67004E6B00E26E00FB
:076FDC00000000866D00318A
:106FE40001C504F502C505F504C501F505C502F59D
:106FF4001200A594A596A590A59202019B6B976B90
:107004001200D7AE08EF38F07AEF38F0A18E1200F4
:10701400D7AE0FEF38F07CEF38F0A19E120077C5A1
:10702400FDF678C5FEF679C5FFF6120077C562F65F
:1070340078C563F679C564F6120077C565F678C538
:1070440066F679C567F6120077C568F678C569F6FD
:1070540079C56AF61200E2C577F5E3C578F5120042
:107064000501776F77C58DF212000501776F77C53B
:107074008FF2120006C595F607C596F612000201B6
:10708400979B979D97991200016E01C58FF212008C
:10709400016E01C58DF21200016E01C58CF2120061
:1070A4000201996B998512000201AB8B1200020157
:1070B400AB8912000201AC8F120003011A8F120077
:1070C4000201948B12000201948D12000201B19FFF
:1070D400120002018B5112000201948B1200020172
:1070E400949D120002018D51120002019A6B12004C
:1070F400A18E1200A19E1200B0901200AF94120053
:0871040012001200120012003B
:020000040030CA
:080000008CFFF7FF9FFFFFFFDB
:01000900FFF7
:00000001FF
